:100000000C942A000C94980C0C94CB0C0C94FE0CC1
:100010000C9421100C94EE0F0C9447000C94880F54
:100020000C94BB0F0C94550F0C94220F0C94EF0EF4
:100030000C9447000C9447000C9447000C94470024
:100040000C9447000C9447000C9447000C94470014
:100050000C94470011241FBECFE5D8E0DEBFCDBF12
:1000600011E0A0E6B0E0EEEDFEE302C005900D92D7
:10007000A238B107D9F711E0A2E8B1E001C01D92A2
:10008000A83AB107E1F70E94961D0C946D1F0C94DD
:100090000000EF92FF920F931F937B018C0120E0F1
:1000A00030E040E05FE40E94250488238CF0C80122
:1000B000B70120E030E040E05FE40E949D020E9432
:1000C000E3049B01AC01205030404040504806C042
:1000D000C801B7010E94E3049B01AC01B901CA0148
:1000E0001F910F91FF90EF900895A2E0B0E0EBE731
:1000F000F0E00C94361F122FB32EA42E952E862ED0
:10010000372E282E9A83C22ED32EE42EF52EA70149
:10011000960160E070E080E090E02117A1F43B15CB
:1001200091F44A1581F4591571F4681561F4731549
:1001300051F4821541F4AA819A1729F4C701B60136
:100140000E943705AAC0212F3B2D4A2D592D682D1D
:10015000732D822D9A8100E20E94B005C901DA0157
:100160008030E0E09E07E1E0AE07E0E0BE0780F40B
:100170008F3F9105A105B10531F028F028E030E06E
:1001800040E050E016C020E030E040E050E011C018
:100190008030F0E09F07F0E0AF07F1E0BF0728F004
:1001A00028E130E040E050E004C020E130E040E0F1
:1001B00050E0022E04C0B695A795979587950A94AE
:1001C000D2F7FC01EC58FF4F808129013A01480E1B
:1001D000511C611C711C4982212F3B2D4A2D592D28
:1001E000682D732D822D9A81042D0E94B005C901BE
:1001F000DA014C015D0180E290E08419950904C0A8
:10020000CC0CDD1CEE1CFF1C8A95D2F7C114D10466
:10021000E104F10441F081E090E0A0E0B0E0882A40
:10022000992AAA2ABB2A90E2491651046104710452
:1002300059F40F2EF0E0EF2EF0E0FF2EF0E80F2F34
:10024000FFE41F2FF02D21C0AFE14A1651046104D5
:10025000710459F40F2EF0E0EF2EF0E0FF2EF0E0E5
:100260000F2FFFE41F2FF02D10C061E070E080E041
:1002700090E0098004C0660F771F881F991F0A94B9
:10028000D2F70E9485047B018C01C501B4010E9454
:100290003705A80197010E94FB022296E2E10C9427
:1002A000521FA0E0B0E0E7E5F1E00C94361FDC015E
:1002B0002B01FA019C91923008F439C1EB0188813D
:1002C000823008F433C1943069F4843009F02FC1CE
:1002D00011969C9111978981981709F428C1ACE671
:1002E000B0E025C1843009F421C18230A9F49230F4
:1002F00009F01DC19A01AD0188E0EA010990AE0143
:10030000E90109929E018150C1F7E20189811196AC
:100310009C918923818308C1923009F407C1129608
:100320002D903C901397EB018A819B811496AD90A0
:10033000BD90CD90DC901797EC80FD800E811F81E1
:100340009101281B390BB90137FF04C066277727B5
:10035000621B730B603271050CF061C0121613063C
:100360006CF537014801062E04C096948794779463
:1003700067940A94D2F721E030E040E050E004C0F6
:10038000220F331F441F551F6A95D2F7215030406A
:10039000404050402E213F2140235123211531055B
:1003A0004105510521F021E030E040E050E07901C5
:1003B0008A01E628F728082919293CC0232BD1F106
:1003C000260E371E35014601062E04C096948794EA
:1003D000779467940A94D2F721E030E040E050E04F
:1003E00004C0220F331F441F551F6A95D2F72150B6
:1003F0003040404050402A213B214C215D212115B5
:1004000031054105510521F021E030E040E050E0A8
:1004100059016A01A628B728C828D9280BC0821517
:1004200093052CF01C01AA24BB24650103C0EE2413
:10043000FF24870111969C91D20111968C919817F7
:1004400009F445C0992339F0A80197012A193B09FD
:100450004C095D0906C0A60195012E193F09400B04
:10046000510B57FD08C011823382228224833583C9
:10047000468357831DC081E081833382228288278F
:100480009927DC01821B930BA40BB50B8483958306
:10049000A683B7830DC0220F331F441F551F24832B
:1004A0003583468357838281938101979383828327
:1004B0002481358146815781DA01C9010197A1095B
:1004C000B1098F5F9F4FAF4FBF4328F30BC091839C
:1004D00033822282EA0CFB1C0C1D1D1DE482F58276
:1004E0000683178383E08083248135814681578189
:1004F00057FF1AC0C901AA2797FDA095BA2F81708E
:100500009070A070B0705695479537952795822BBF
:10051000932BA42BB52B84839583A683B7838281E9
:100520009381019693838283DF0101C0D201CD01C3
:10053000CDB7DEB7E2E10C94521FA0E2B0E0E3EAEF
:10054000F2E00C94421F69837A838B839C832D8312
:100550003E834F835887E9E0EE2EF12CEC0EFD1E12
:10056000CE010196B7010E9453078E010F5E1F4F07
:10057000CE010596B8010E9453078A8991E0892728
:100580008A8BC701B801AE01475E5F4F0E945101DF
:100590000E947E06A096E6E00C945E1FA0E2B0E00A
:1005A000E4EDF2E00C94421F69837A838B839C8391
:1005B0002D833E834F835887F9E0EF2EF12CEC0E0C
:1005C000FD1ECE010196B7010E9453078E010F5EFA
:1005D0001F4FCE010596B8010E945307C701B8010D
:1005E000AE01475E5F4F0E9451010E947E06A096B9
:1005F000E6E00C945E1FA0E2B0E0E1E0F3E00C94D2
:10060000361F69837A838B839C832D833E834F833C
:100610005887CE010196BE01675F7F4F0E94530746
:10062000CE010596BE016F5E7F4F0E9453079985EC
:10063000923088F089898230C8F0943019F4823081
:1006400051F404C0843029F4923081F48CE690E0B7
:10065000C6C0923049F420E09A858A89981321E037
:100660002A87CE010996BBC0823049F420E09A85E2
:100670008A89981321E02A8BCE014196B0C02D843F
:100680003E844F8458886D887E888F88988CEE24AD
:10069000FF248701AA24BB24650140E050E060E00C
:1006A00070E0E0E0F0E0C10181709070892BE9F02A
:1006B000E60CF71C081D191D9A01AB012A0D3B1D04
:1006C0004C1D5D1D80E090E0A0E0B0E0E614F70472
:1006D0000805190520F481E090E0A0E0B0E0BA013F
:1006E000A901480F591F6A1F7B1FAA0CBB1CCC1CF9
:1006F000DD1C97FE08C081E090E0A0E0B0E0A82AF1
:10070000B92ACA2ADB2A3196E032F10549F0660C93
:10071000771C881C991C5694479437942794C3CF10
:10072000FA85EA892B893C898B859C85280F391F9E
:100730002E5F3F4F17C0CA0181709070892B61F006
:1007400016950795F794E79480E090E0A0E0B0E874
:10075000E82AF92A0A2B1B2B76956795579547951A
:100760002F5F3F4F77FDE7CF0CC0440F551F661F2B
:10077000771F17FD4160EE0CFF1C001F111F215059
:100780003040403090E0590790E0690790E47907E5
:1007900060F32B8F3C8FDB01CA018F779070A070C4
:1007A000B07080349105A105B10561F447FD0AC020
:1007B000E114F1040105110529F0405C5F4F6F4F12
:1007C0007F4F40781A8EFE1711F081E08A8F4D8F8F
:1007D0005E8F6F8F78A383E0898FCE0149960E9448
:1007E0007E06A096E2E10C94521FA8E1B0E0EBEF88
:1007F000F3E00C94421F69837A838B839C832D835F
:100800003E834F83588789E0E82EF12CEC0EFD1EC5
:10081000CE010196B7010E9453078E010F5E1F4F54
:10082000CE010596B8010E9453078985823040F0B9
:100830008989823028F0C701B8010E94CB0701C026
:100840008FEF6896E6E00C945E1FA8E1B0E0EBE263
:10085000F4E00C94421F69837A838B839C832D83FD
:100860003E834F83588789E0E82EF12CEC0EFD1E65
:10087000CE010196B7010E9453078E010F5E1F4FF4
:10088000CE010596B8010E9453078985823040F059
:100890008989823028F0C701B8010E94CB0701C0C6
:1008A0008FEF6896E6E00C945E1FA8E1B0E0EBE500
:1008B000F4E00C94421F69837A838B839C832D839D
:1008C0003E834F83588789E0E82EF12CEC0EFD1E05
:1008D000CE010196B7010E9453078E010F5E1F4F94
:1008E000CE010596B8010E9453078985823040F0F9
:1008F0008989823028F0C701B8010E94CB0701C066
:1009000081E06896E6E00C945E1FA8E0B0E0EBE8BA
:10091000F4E00C943F1F9B01AC0183E08983DA0172
:10092000C9018827B7FD83959927AA27BB27B82E29
:10093000211531054105510519F482E089833AC03A
:100940008823A9F0203080E0380780E0480780E85D
:10095000580729F460E070E080E09FEC30C0EE249E
:10096000FF248701E21AF30A040B150B02C0790178
:100970008A018EE1C82ED12CDC82CB82ED82FE82F0
:100980000F831887C801B7010E942F060197181618
:10099000190684F4082E04C0EE0CFF1C001F111F62
:1009A0000A94D2F7ED82FE820F831887C81AD90AFB
:1009B000DC82CB82BA82CE0101960E947E06289606
:1009C000E9E00C945B1FACE0B0E0E9EEF4E00C94DD
:1009D000461F69837A838B839C83CE010196BE0177
:1009E0006B5F7F4F0E9453078D81823061F18230AF
:1009F00050F1843021F48E81882351F12EC02F8153
:100A0000388537FD20C06E812F3131051CF06623FB
:100A1000F9F023C08EE190E0821B930B29853A8583
:100A20004B855C8504C056954795379527958A95E3
:100A3000D2F76623B1F050954095309521953F4F00
:100A40004F4F5F4F0EC020E030E040E050E009C063
:100A50002FEF3FEF4FEF5FE704C020E030E040E0D2
:100A600050E8B901CA012C96E2E00C94621FA8E09C
:100A7000B0E0EDE3F5E00C943E1F7B018C016115C5
:100A800071058105910519F482E0898360C083E0D6
:100A900089838EE1C82ED12CDC82CB82ED82FE824E
:100AA0000F831887C801B7010E942F06FC013197F8
:100AB000F7FF3BC0222733272E1B3F0B570168014E
:100AC000022E04C0D694C794B794A7940A94D2F780
:100AD00040E050E060E070E081E090E0A0E0B0E055
:100AE00004C0880F991FAA1FBB1F2A95D2F7019730
:100AF000A109B1098E219F21A023B1230097A1054F
:100B0000B10521F041E050E060E070E04A295B2946
:100B10006C297D294D835E836F8378878EE190E019
:100B20008E1B9F0B9C838B8312C0309781F00E2EFF
:100B300004C0EE0CFF1C001F111F0A94D2F7ED82B7
:100B4000FE820F831887CE1ADF0ADC82CB821A82DC
:100B5000CE0101960E947E062896EAE00C945A1F68
:100B6000EF92FF920F93DF93CF93CDB7DEB76097ED
:100B70000FB6F894DEBF0FBECDBFA82F002309F437
:100B800061C07E010894E11CF11C88E0F70111921C
:100B90008A95E9F729833A834B835C836D837E834F
:100BA000AF83988780E2801BE82FFF27E7FDF09551
:100BB0004D815E816F817885181684F01D861E86B2
:100BC0001F86188A882799278E1B9F0B04C076954D
:100BD0006795579547958A95D2F728C0202F3327D8
:100BE00027FD3095DB01CA01022E04C0B695A795FA
:100BF000979587950A94D2F78D879E87AF87B88B94
:100C000004C0440F551F661F771FEA95D2F78981EC
:100C10009A81AB81BC8104C0B695A79597958795BD
:100C20002A95D2F7482B592B6A2B7B2B49875A8759
:100C30006B877C8729853A854B855C856D857E85AC
:100C4000AF8598898A2F60960FB6F894DEBF0FBEE5
:100C5000CDBFCF91DF910F91FF90EF900895EF926C
:100C6000FF920F931F937B018C0180E0E81680E0D8
:100C7000F80681E0080780E0180788F48FEFE8168F
:100C8000F1040105110531F028F088E090E0A0E0C2
:100C9000B0E017C080E090E0A0E0B0E012C080E0DB
:100CA000E81680E0F80680E0080781E0180728F0E1
:100CB00088E190E0A0E0B0E004C080E190E0A0E036
:100CC000B0E020E230E040E050E0281B390B4A0B56
:100CD0005B0B04C016950795F794E7948A95D2F7B5
:100CE000F701EC58FF4F8081281B31094109510958
:100CF000C9011F910F91FF90EF900895DF92EF923D
:100D0000FF920F931F93FC01E480F5800681178109
:100D1000D1808081823048F480E090E0A0E1B0E0B2
:100D2000E82AF92A0A2B1B2BA5C0843009F49FC09E
:100D3000823021F4EE24FF24870105C0E114F10480
:100D40000105110519F4E0E0F0E096C062817381BD
:100D50009FEF623879070CF05BC022E83FEF261B5B
:100D6000370B2A3131052CF020E030E040E050E034
:100D70002AC0B801A701022E04C076956795579541
:100D800047950A94D2F781E090E0A0E0B0E004C07B
:100D9000880F991FAA1FBB1F2A95D2F70197A10997
:100DA000B1098E219F21A023B1230097A105B10590
:100DB00021F081E090E0A0E0B0E09A01AB01282BA7
:100DC000392B4A2B5B2BDA01C9018F779070A07009
:100DD000B07080349105A105B10539F427FF09C031
:100DE000205C3F4F4F4F5F4F04C0215C3F4F4F4F40
:100DF0005F4FE0E0F0E02030A0E03A07A0E04A07D3
:100E0000A0E45A0710F0E1E0F0E079018A0127C080
:100E10006038710564F5FB01E158FF4FD801C70147
:100E20008F779070A070B07080349105A105B105E6
:100E300039F4E7FE0DC080E490E0A0E0B0E004C02B
:100E40008FE390E0A0E0B0E0E80EF91E0A1F1B1F40
:100E500017FF05C016950795F794E794319687E03C
:100E600016950795F794E7948A95D1F705C0EE2477
:100E7000FF248701EFEFF0E06E2F679566276795F7
:100E8000902F9F77D794DD24D7948E2F8695492F66
:100E9000462B582F5D29B701CA011F910F91FF9072
:100EA000EF90DF900895FC01DB01408151812281A8
:100EB000622F6F7770E0221F2227221F9381892FD4
:100EC000880F822B282F30E0991F9927991F1196A0
:100ED0009C93119721153105A9F54115510561051F
:100EE000710511F482E037C082E89FEF13969C935E
:100EF0008E9312979A01AB0167E0220F331F441FB4
:100F0000551F6A95D1F783E08C930DC0220F331FD4
:100F1000441F551F12968D919C911397019713961C
:100F20009C938E931297203080E0380780E048072A
:100F300080E4580758F314962D933D934D935C939A
:100F4000179708952F3F310579F441155105610533
:100F5000710519F484E08C93089564FF03C081E067
:100F60008C9312C01C9210C02F57304013963C93A4
:100F70002E93129783E08C9387E0440F551F661FD2
:100F8000771F8A95D1F7706414964D935D936D9396
:100F90007C93179708951F93DC01FB019C9192307D
:100FA00008F447C08081823008F443C0943051F483
:100FB00011961C91843099F58181682F70E0611B36
:100FC00071093FC0843021F0923031F48230B9F1A0
:100FD0008181882389F12DC011961C91119782304F
:100FE000F1F081811817D9F412962D913C91139745
:100FF000828193818217930794F028173907BCF0F8
:1010000014968D919D910D90BC91A02D24813581D8
:1010100046815781281739074A075B0718F41123BF
:1010200041F00AC082179307A407B50740F41123C3
:1010300019F061E070E005C06FEF7FEF02C060E083
:1010400070E0CB011F910895DF93CF93CDB7DEB74A
:101050002E970FB6F894DEBF0FBECDBF8A836B8389
:101060004C8319828B81883018F081E0898310C20B
:101070008A81282F30E03E872D878D859E8581309F
:10108000910509F492C02D853E85223031052CF45E
:101090008D859E85009771F0F9C12D853E852230A2
:1010A000310509F4FDC08D859E858330910509F4D5
:1010B00072C1ECC18C81282F30E03C872B878B8557
:1010C0009C8581309105F9F02B853C8522303105D6
:1010D00009F441C08B859C85009709F063C0AAE3A1
:1010E000B0E0EAE3F0E08081482F8B81282F30E0E8
:1010F00081E090E0022E02C0880F991F0A94E2F767
:10110000842B8C93C5C1AAE3B0E0EAE3F0E08081D0
:10111000482F8B81282F30E081E090E002C0880FBB
:10112000991F2A95E2F7809584238C93ABE3B0E076
:10113000EBE3F0E08081482F8B81282F30E081E0C5
:1011400090E0022E02C0880F991F0A94E2F7809562
:1011500084238C939DC1AAE3B0E0EAE3F0E08081B0
:10116000482F8B81282F30E081E090E002C0880F6B
:10117000991F2A95E2F7809584238C93ABE3B0E026
:10118000EBE3F0E08081482F8B81282F30E081E075
:1011900090E0022E02C0880F991F0A94E2F7842B78
:1011A0008C9376C181E0898373C18C81282F30E0D4
:1011B0003A87298789859A8581309105F9F02985B3
:1011C0003A852230310509F441C089859A85009716
:1011D00009F063C0A7E3B0E0E7E3F0E08081482FC7
:1011E0008B81282F30E081E090E0022E02C0880F32
:1011F000991F0A94E2F7842B8C934AC1A7E3B0E0CD
:10120000E7E3F0E08081482F8B81282F30E081E0F8
:1012100090E002C0880F991F2A95E2F780958423F9
:101220008C93A8E3B0E0E8E3F0E08081482F8B8165
:10123000282F30E081E090E0022E02C0880F991F35
:101240000A94E2F7809584238C9322C1A7E3B0E04F
:10125000E7E3F0E08081482F8B81282F30E081E0A8
:1012600090E002C0880F991F2A95E2F780958423A9
:101270008C93A8E3B0E0E8E3F0E08081482F8B8115
:10128000282F30E081E090E0022E02C0880F991FE5
:101290000A94E2F7842B8C93FBC081E08983F8C029
:1012A0008C81282F30E038872F838F81988581307B
:1012B0009105F9F02F8138852230310509F441C0BC
:1012C0008F819885009709F063C0A4E3B0E0E4E360
:1012D000F0E08081482F8B81282F30E081E090E082
:1012E000022E02C0880F991F0A94E2F7842B8C9378
:1012F000CFC0A4E3B0E0E4E3F0E08081482F8B812D
:10130000282F30E081E090E002C0880F991F2A95D5
:10131000E2F7809584238C93A5E3B0E0E5E3F0E069
:101320008081482F8B81282F30E081E090E0022ED1
:1013300002C0880F991F0A94E2F7809584238C934A
:10134000A7C0A4E3B0E0E4E3F0E08081482F8B8104
:10135000282F30E081E090E002C0880F991F2A9585
:10136000E2F7809584238C93A5E3B0E0E5E3F0E019
:101370008081482F8B81282F30E081E090E0022E81
:1013800002C0880F991F0A94E2F7842B8C9380C0C7
:1013900081E089837DC08C81282F30E03E832D83BE
:1013A0008D819E8181309105F9F02D813E81223021
:1013B000310509F441C08D819E81009709F063C019
:1013C000A1E3B0E0E1E3F0E08081482F8B81282F9A
:1013D00030E081E090E0022E02C0880F991F0A944D
:1013E000E2F7842B8C9354C0A1E3B0E0E1E3F0E09A
:1013F0008081482F8B81282F30E081E090E002C06F
:10140000880F991F2A95E2F7809584238C93A2E395
:10141000B0E0E2E3F0E08081482F8B81282F30E0BC
:1014200081E090E0022E02C0880F991F0A94E2F733
:10143000809584238C932CC0A1E3B0E0E1E3F0E03D
:101440008081482F8B81282F30E081E090E002C01E
:10145000880F991F2A95E2F7809584238C93A2E345
:10146000B0E0E2E3F0E08081482F8B81282F30E06C
:1014700081E090E0022E02C0880F991F0A94E2F7E3
:10148000842B8C9305C081E0898302C081E089832D
:1014900089812E960FB6F894DEBF0FBECDBFCF91D7
:1014A000DF910895DF93CF9300D000D000D0CDB767
:1014B000DEB78A836B834C8319828B81883018F066
:1014C00081E08983ECC08A81282F30E03E832D8320
:1014D0008D819E818130910509F449C02D813E8125
:1014E000223031052CF48D819E81009771F0D5C09A
:1014F0002D813E812230310509F46BC08D819E81A2
:101500008330910509F497C0C8C08C818130A1F463
:10151000ABE3B0E0EBE3F0E08081482F8B81282F34
:1015200030E081E090E0022E02C0880F991F0A94FB
:10153000E2F7842B8C93B3C08C818823A9F4ABE3AE
:10154000B0E0EBE3F0E08081482F8B81282F30E082
:1015500081E090E0022E02C0880F991F0A94E2F702
:10156000809584238C939BC081E0898398C08C8173
:101570008130A1F4A8E3B0E0E8E3F0E08081482FF7
:101580008B81282F30E081E090E0022E02C0880F8E
:10159000991F0A94E2F7842B8C9381C08C81882355
:1015A000A9F4A8E3B0E0E8E3F0E08081482F8B8164
:1015B000282F30E081E090E0022E02C0880F991FB2
:1015C0000A94E2F7809584238C9369C081E0898333
:1015D00066C08C818130A1F4A5E3B0E0E5E3F0E0E2
:1015E0008081482F8B81282F30E081E090E0022E0F
:1015F00002C0880F991F0A94E2F7842B8C934FC086
:101600008C818823A9F4A5E3B0E0E5E3F0E08081D4
:10161000482F8B81282F30E081E090E0022E02C01D
:10162000880F991F0A94E2F7809584238C9337C022
:1016300081E0898334C08C818130A1F4A2E3B0E0E1
:10164000E2E3F0E08081482F8B81282F30E081E0B9
:1016500090E0022E02C0880F991F0A94E2F7842BB3
:101660008C931DC08C818823A9F4A2E3B0E0E2E34F
:10167000F0E08081482F8B81282F30E081E090E0DE
:10168000022E02C0880F991F0A94E2F780958423E6
:101690008C9305C081E0898302C081E089838981C0
:1016A00026960FB6F894DEBF0FBECDBFCF91DF9167
:1016B0000895DF93CF9300D000D00F92CDB7DEB75F
:1016C0008A836B8319828A81282F30E03D832C83A3
:1016D0004C815D814130510509F43CC08C819D8174
:1016E0008230910534F42C813D812115310571F052
:1016F0009CC04C815D814230510509F44FC08C8102
:101700009D818330910509F46DC08FC0ABE3B0E0DB
:10171000EBE3F0E08081482F8B81282F30E081E0DF
:1017200090E002C0880F991F2A95E2F784278C93D6
:10173000E9E3F0E08081282F30E08B81882F90E072
:10174000A90102C0559547958A95E2F7CA018170B3
:1017500089836BC0A8E3B0E0E8E3F0E08081482F24
:101760008B81282F30E081E090E002C0880F991F24
:101770002A95E2F784278C93E6E3F0E08081282F16
:1017800030E08B81882F90E0A90102C055954795E4
:101790008A95E2F7CA018170898347C0A5E3B0E06A
:1017A000E5E3F0E08081482F8B81282F30E081E055
:1017B00090E002C0880F991F2A95E2F784278C9346
:1017C000E3E3F0E08081282F30E08B81882F90E0E8
:1017D000A90102C0559547958A95E2F7CA01817023
:1017E000898323C0A2E3B0E0E2E3F0E08081482FE8
:1017F0008B81282F30E081E090E002C0880F991F94
:101800002A95E2F784278C93E0E3F0E08081282F8B
:1018100030E08B81882F90E0A90102C05595479553
:101820008A95E2F7CA018170898389810F900F90B0
:101830000F900F900F90CF91DF910895DF93CF938A
:1018400000D000D00F92CDB7DEB78A836B831982A8
:101850008A81282F30E03D832C834C815D8141308B
:10186000510541F18C819D818230910534F42C81A8
:101870003D812115310561F052C04C815D814230BE
:10188000510551F18C819D8183309105B9F147C09B
:10189000E9E3F0E08081282F30E08B81882F90E011
:1018A000A90102C0559547958A95E2F7CA01817052
:1018B000898335C0E6E3F0E08081282F30E08B811A
:1018C000882F90E0A90102C0559547958A95E2F7C7
:1018D000CA018170898323C0E3E3F0E08081282F6F
:1018E00030E08B81882F90E0A90102C05595479583
:1018F0008A95E2F7CA018170898311C0E0E3F0E0C4
:101900008081282F30E08B81882F90E0A90102C0D0
:10191000559547958A95E2F7CA0181708983898137
:101920000F900F900F900F900F90CF91DF9108952F
:101930001F920F920FB60F9211242F933F934F9344
:101940005F936F937F938F939F93AF93BF93EF9327
:10195000FF93DF93CF93CDB7DEB780918201909153
:101960008301009729F0E0918201F09183010995AC
:10197000CF91DF91FF91EF91BF91AF919F918F91A7
:101980007F916F915F914F913F912F910F900FBE7B
:101990000F901F9018951F920F920FB60F9211245F
:1019A0002F933F934F935F936F937F938F939F9367
:1019B000AF93BF93EF93FF93DF93CF93CDB7DEB792
:1019C0008091840190918501009729F0E091840134
:1019D000F09185010995CF91DF91FF91EF91BF9132
:1019E000AF919F918F917F916F915F914F913F91B7
:1019F0002F910F900FBE0F901F9018951F920F926E
:101A00000FB60F9211242F933F934F935F936F93D1
:101A10007F938F939F93AF93BF93EF93FF93DF9346
:101A2000CF93CDB7DEB78091860190918701009763
:101A300029F0E0918601F09187010995CF91DF911E
:101A4000FF91EF91BF91AF919F918F917F916F9196
:101A50005F914F913F912F910F900FBE0F901F906C
:101A60001895DF93CF93CDB7DEB729970FB6F894CB
:101A7000DEBF0FBECDBF8A836B8319828A81882324
:101A800009F05EC08B81282F30E039872887888550
:101A900099858130910521F12885398522303105DC
:101AA0002CF488859985009761F047C02885398591
:101AB0002230310521F1888599858330910571F1B6
:101AC0003CC0A5E5B0E0E5E5F0E080818E7F8C9339
:101AD000A5E5B0E0E5E5F0E080818D7F8C93BAC0AC
:101AE000A5E5B0E0E5E5F0E0808181608C93A5E5B7
:101AF000B0E0E5E5F0E080818D7F8C93ABC0A5E59B
:101B0000B0E0E5E5F0E080818E7F8C93A5E5B0E064
:101B1000E5E5F0E0808182608C939CC0A5E5B0E0B3
:101B2000E5E5F0E0808181608C93A5E5B0E0E5E536
:101B3000F0E0808182608C938DC081E089838AC0CF
:101B40008A81813009F05EC08B81282F30E03F838D
:101B50002E838E819F818130910521F12E813F81DD
:101B6000223031052CF48E819F81009761F047C0AF
:101B70002E813F812230310521F18E819F8183307A
:101B8000910571F13CC0A5E5B0E0E5E5F0E08081AC
:101B90008B7F8C93A5E5B0E0E5E5F0E08081877F61
:101BA0008C9358C0A5E5B0E0E5E5F0E08081846065
:101BB0008C93A5E5B0E0E5E5F0E08081877F8C932C
:101BC00049C0A5E5B0E0E5E5F0E080818B7F8C932E
:101BD000A5E5B0E0E5E5F0E0808188608C933AC04F
:101BE000A5E5B0E0E5E5F0E0808184608C93A5E5B3
:101BF000B0E0E5E5F0E0808188608C932BC081E067
:101C0000898328C08A81823019F58B81282F30E0A2
:101C10003D832C838C819D818230910531F02C8114
:101C20003D812330310549F010C0A4E5B0E0E4E582
:101C3000F0E080818F7B8C930DC0A4E5B0E0E4E5FB
:101C4000F0E0808180648C9305C081E0898302C0CC
:101C500081E08983898129960FB6F894DEBF0FBE93
:101C6000CDBFCF91DF910895DF93CF9300D0CDB753
:101C7000DEB78A8319828A81882341F4ABE5B0E01C
:101C8000EBE5F0E0808180648C9318C08A8181301C
:101C900041F4ABE5B0E0EBE5F0E0808180688C9347
:101CA0000DC08A81823041F4ABE5B0E0EBE5F0E0B5
:101CB000808180628C9302C081E0898389810F904A
:101CC0000F90CF91DF910895DF93CF9300D0CDB7E0
:101CD000DEB78A8319828A81882341F4ABE5B0E0BC
:101CE000EBE5F0E080818F7B8C9318C08A81813096
:101CF00041F4ABE5B0E0EBE5F0E080818F778C93C9
:101D00000DC08A81823041F4ABE5B0E0EBE5F0E054
:101D100080818F7D8C9302C081E0898389810F90BF
:101D20000F90CF91DF910895DF93CF9300D000D033
:101D300000D0CDB7DEB78A837C836B8319828A811A
:101D4000282F30E03E832D838D819E818130910547
:101D500081F02D813E812230310591F08D819E816F
:101D60000097A9F48B819C819093830180938201D9
:101D700010C08B819C81909385018093840109C060
:101D80008B819C81909387018093860102C081E0C2
:101D90008983898126960FB6F894DEBF0FBECDBF2A
:101DA000CF91DF910895DF93CF93CDB7DEB7AFE545
:101DB000B0E0EFE5F0E0808180688C93CF91DF9117
:101DC0000895DF93CF93CDB7DEB7AFE5B0E0EFE591
:101DD000F0E080818F778C93CF91DF9108951F92EF
:101DE0000F920FB60F9211242F933F934F935F934F
:101DF0006F937F938F939F93AF93BF93EF93FF93D3
:101E0000DF93CF93CDB7DEB78091880190918901A0
:101E1000009729F0E0918801F09189010995CF910F
:101E2000DF91FF91EF91BF91AF919F918F917F9142
:101E30006F915F914F913F912F910F900FBE0F9037
:101E40001F9018951F920F920FB60F9211242F9387
:101E50003F934F935F936F937F938F939F93AF9332
:101E6000BF93EF93FF93DF93CF93CDB7DEB780910E
:101E70008A0190918B01009729F0E0918A01F091FD
:101E80008B010995CF91DF91FF91EF91BF91AF91B8
:101E90009F918F917F916F915F914F913F912F9182
:101EA0000F900FBE0F901F9018951F920F920FB6B4
:101EB0000F9211242F933F934F935F936F937F93D0
:101EC0008F939F93AF93BF93EF93FF93DF93CF9342
:101ED000CDB7DEB780918C0190918D01009729F0EC
:101EE000E0918C01F0918D010995CF91DF91FF91E7
:101EF000EF91BF91AF919F918F917F916F915F9182
:101F00004F913F912F910F900FBE0F901F901895FA
:101F10001F920F920FB60F9211242F933F934F935E
:101F20005F936F937F938F939F93AF93BF93EF9341
:101F3000FF93DF93CF93CDB7DEB780918E01909161
:101F40008F01009729F0E0918E01F0918F010995A2
:101F5000CF91DF91FF91EF91BF91AF919F918F91C1
:101F60007F916F915F914F913F912F910F900FBE95
:101F70000F901F9018951F920F920FB60F92112479
:101F80002F933F934F935F936F937F938F939F9381
:101F9000AF93BF93EF93FF93DF93CF93CDB7DEB7AC
:101FA0008091900190919101009729F0E09190012A
:101FB000F09191010995CF91DF91FF91EF91BF9140
:101FC000AF919F918F917F916F915F914F913F91D1
:101FD0002F910F900FBE0F901F9018951F920F9288
:101FE0000FB60F9211242F933F934F935F936F93EC
:101FF0007F938F939F93AF93BF93EF93FF93DF9361
:10200000CF93CDB7DEB78091920190919301009765
:1020100029F0E0919201F09193010995CF91DF9120
:10202000FF91EF91BF91AF919F918F917F916F91B0
:102030005F914F913F912F910F900FBE0F901F9086
:1020400018951F920F920FB60F9211242F933F9362
:102050004F935F936F937F938F939F93AF93BF93B0
:10206000EF93FF93DF93CF93CDB7DEB780919401C9
:1020700090919501009729F0E0919401F0919501DC
:102080000995CF91DF91FF91EF91BF91AF919F9112
:102090008F917F916F915F914F913F912F910F9011
:1020A0000FBE0F901F901895DF93CF93CDB7DEB77B
:1020B0002B970FB6F894DEBF0FBECDBF9B838A83EC
:1020C0001982EA81FB818081882309F491C0EA8129
:1020D000FB818081813079F4A3E5B0E0E3E5F0E0B5
:1020E0008081877F8C93A3E5B0E0E3E5F0E0808119
:1020F0008F7B8C9316C0EA81FB818081823079F4DA
:10210000A3E5B0E0E3E5F0E08081877F8C93A3E571
:10211000B0E0E3E5F0E0808180648C9302C081E070
:102120008983EA81FB818281282F30E03B872A87DF
:102130008A859B858130910521F12A853B85223056
:1021400031052CF48A859B85009761F047C02A856C
:102150003B852230310521F18A859B8583309105AD
:1021600071F13CC0A3E5B0E0E3E5F0E080818F7E53
:102170008C93A3E5B0E0E3E5F0E080818F7D8C9364
:102180002FC0A3E5B0E0E3E5F0E0808180618C93AF
:10219000A3E5B0E0E3E5F0E080818F7D8C9320C083
:1021A000A3E5B0E0E3E5F0E080818F7E8C93A3E5CA
:1021B000B0E0E3E5F0E0808180628C9311C0A3E59C
:1021C000B0E0E3E5F0E0808180618C93A3E5B0E0CE
:1021D000E3E5F0E0808180628C9302C081E0898336
:1021E000EA81FB81918180E0692F0E94CD12898371
:1021F000EA81FB818381882309F42EC1EA81FB8176
:1022000083818130E9F4AFE4B0E0EFE4F0E0808175
:102210008E7F8C93AFE4B0E0EFE4F0E080818D7FBF
:102220008C93AEE4B0E0EEE4F0E08081877F8C93A5
:10223000AEE4B0E0EEE4F0E080818F7E8C9346C0A7
:10224000EA81FB8183818230E9F4AFE4B0E0EFE41E
:10225000F0E080818E7F8C93AFE4B0E0EFE4F0E0BB
:1022600080818D7F8C93AEE4B0E0EEE4F0E080817D
:1022700088608C93AEE4B0E0EEE4F0E080818F7E85
:102280008C9324C0EA81FB8183818330E9F4AFE43D
:10229000B0E0EFE4F0E080818E7F8C93AFE4B0E0BB
:1022A000EFE4F0E080818D7F8C93AEE4B0E0EEE46B
:1022B000F0E0808188608C93AEE4B0E0EEE4F0E082
:1022C000808180618C9302C081E08983EA81FB81F7
:1022D0008581282F30E03987288788859985813046
:1022E000910521F128853985223031052CF4888526
:1022F0009985009761F047C02885398522303105DE
:1023000021F1888599858330910571F13CC0AFE456
:10231000B0E0EFE4F0E080818F7B8C93AFE4B0E03D
:10232000EFE4F0E080818F778C932FC0AFE4B0E0D2
:10233000EFE4F0E0808180648C93AFE4B0E0EFE400
:10234000F0E080818F778C9320C0AFE4B0E0EFE4C1
:10235000F0E080818F7B8C93AFE4B0E0EFE4F0E0BD
:10236000808180688C9311C0AFE4B0E0EFE4F0E0CE
:10237000808180648C93AFE4B0E0EFE4F0E0808192
:1023800080688C9302C081E08983EA81FB81868129
:10239000282F30E03F832E838E819F8181309105ED
:1023A00021F12E813F81223031052CF48E819F81D5
:1023B000009761F047C02E813F812230310521F125
:1023C0008E819F818330910571F13CC0AFE4B0E014
:1023D000EFE4F0E080818F7E8C93AFE4B0E0EFE437
:1023E000F0E080818F7D8C932FC0AFE4B0E0EFE40C
:1023F000F0E0808180618C93AFE4B0E0EFE4F0E046
:1024000080818F7D8C9320C0AFE4B0E0EFE4F0E0FA
:1024100080818F7E8C93AFE4B0E0EFE4F0E08081C8
:1024200080628C9311C0AFE4B0E0EFE4F0E0808113
:1024300080618C93AFE4B0E0EFE4F0E080818062F3
:102440008C9302C081E08983EA81FB81948181E0E1
:10245000692F0E94CD128983EA81FB8187818823BD
:1024600009F491C0EA81FB818781813079F4A5E488
:10247000B0E0E5E4F0E08081877F8C93A5E4B0E0F4
:10248000E5E4F0E080818F7B8C9316C0EA81FB81CC
:102490008781823079F4A5E4B0E0E5E4F0E0808162
:1024A000877F8C93A5E4B0E0E5E4F0E08081806470
:1024B0008C9302C081E08983EA81FB818185282F8A
:1024C00030E03D832C838C819D818130910521F109
:1024D0002C813D81223031052CF48C819D81009727
:1024E00061F047C02C813D812230310521F18C8182
:1024F0009D818330910571F13CC0A5E4B0E0E5E435
:10250000F0E080818F7E8C93A5E4B0E0E5E4F0E01C
:1025100080818F7D8C932FC0A5E4B0E0E5E4F0E0EE
:10252000808180618C93A5E4B0E0E5E4F0E08081F7
:102530008F7D8C9320C0A5E4B0E0E5E4F0E08081DD
:102540008F7E8C93A5E4B0E0E5E4F0E080818062CA
:102550008C9311C0A5E4B0E0E5E4F0E080818061F7
:102560008C93A5E4B0E0E5E4F0E0808180628C9398
:1025700002C081E08983EA81FB81908582E0692F36
:102580000E94CD12898389812B960FB6F894DEBF05
:102590000FBECDBFCF91DF910895DF93CF93CDB71D
:1025A000DEB729970FB6F894DEBF0FBECDBF8A8382
:1025B0006B8319828A81882309F0F3C08B81282FCD
:1025C00030E039872887888599858430910509F41A
:1025D00077C028853985253031058CF48885998523
:1025E0008130910509F440C02885398522303105B4
:1025F00009F450C088859985009701F1CFC02885DE
:1026000039852730310509F487C088859985883058
:1026100091053CF4288539852630310509F466C0DA
:10262000BDC0888599858830910509F48BC02885BF
:1026300039852930310509F49BC0B0C0A3E5B0E06D
:10264000E3E5F0E080818E7F8C93A3E5B0E0E3E5E5
:10265000F0E080818D7F8C93A3E5B0E0E3E5F0E0CE
:1026600080818B7F8C9386C2A3E5B0E0E3E5F0E048
:10267000808181608C93A3E5B0E0E3E5F0E08081A8
:102680008D7F8C93A3E5B0E0E3E5F0E080818B7F64
:102690008C9370C2A3E5B0E0E3E5F0E080818E7F2B
:1026A0008C93A3E5B0E0E3E5F0E0808182608C9359
:1026B000A3E5B0E0E3E5F0E080818B7F8C935AC224
:1026C000A3E5B0E0E3E5F0E0808181608C93A3E5D1
:1026D000B0E0E3E5F0E0808182608C93A3E5B0E0B8
:1026E000E3E5F0E080818B7F8C9344C2A3E5B0E00A
:1026F000E3E5F0E080818E7F8C93A3E5B0E0E3E535
:10270000F0E080818D7F8C93A3E5B0E0E3E5F0E01D
:10271000808184608C932EC2A3E5B0E0E3E5F0E015
:10272000808181608C93A3E5B0E0E3E5F0E08081F7
:102730008D7F8C93A3E5B0E0E3E5F0E080818460D9
:102740008C9318C2A3E5B0E0E3E5F0E080818E7FD2
:102750008C93A3E5B0E0E3E5F0E0808182608C93A8
:10276000A3E5B0E0E3E5F0E0808184608C9302C2F1
:10277000A3E5B0E0E3E5F0E0808181608C93A3E520
:10278000B0E0E3E5F0E0808182608C93A3E5B0E007
:10279000E3E5F0E0808184608C93ECC181E0898383
:1027A000E9C18A81813009F0F3C08B81282F30E0A4
:1027B0003F832E838E819F818430910509F477C0F9
:1027C0002E813F81253031058CF48E819F818130AF
:1027D000910509F440C02E813F812230310509F472
:1027E00050C08E819F81009701F1CFC02E813F8123
:1027F0002730310509F487C08E819F81883091058B
:102800003CF42E813F812630310509F466C0BDC0FD
:102810008E819F818830910509F48BC02E813F8184
:102820002930310509F49BC0B0C0AEE4B0E0EEE45D
:10283000F0E080818E7F8C93AEE4B0E0EEE4F0E0D7
:1028400080818D7F8C93AEE4B0E0EEE4F0E0808197
:102850008B7F8C938FC1AEE4B0E0EEE4F0E080813A
:1028600081608C93AEE4B0E0EEE4F0E080818D7F97
:102870008C93AEE4B0E0EEE4F0E080818B7F8C934B
:1028800079C1AEE4B0E0EEE4F0E080818E7F8C931D
:10289000AEE4B0E0EEE4F0E0808182608C93AEE4E0
:1028A000B0E0EEE4F0E080818B7F8C9363C1AEE416
:1028B000B0E0EEE4F0E0808181608C93AEE4B0E0C3
:1028C000EEE4F0E0808182608C93AEE4B0E0EEE470
:1028D000F0E080818B7F8C934DC1AEE4B0E0EEE4FC
:1028E000F0E080818E7F8C93AEE4B0E0EEE4F0E027
:1028F00080818D7F8C93AEE4B0E0EEE4F0E08081E7
:1029000084608C9337C1AEE4B0E0EEE4F0E0808107
:1029100081608C93AEE4B0E0EEE4F0E080818D7FE6
:102920008C93AEE4B0E0EEE4F0E0808184608C93C0
:1029300021C1AEE4B0E0EEE4F0E080818E7F8C93C4
:10294000AEE4B0E0EEE4F0E0808182608C93AEE42F
:10295000B0E0EEE4F0E0808184608C930BC1AEE4E3
:10296000B0E0EEE4F0E0808181608C93AEE4B0E012
:10297000EEE4F0E0808182608C93AEE4B0E0EEE4BF
:10298000F0E0808184608C93F5C081E08983F2C09F
:102990008A81823009F0ECC08B81282F30E03D83A2
:1029A0002C838C819D818330910509F470C02C812A
:1029B0003D812430310584F48C819D8181309105E5
:1029C000D1F12C813D81223031050CF04AC08C813F
:1029D0009D810097D1F0C9C02C813D812530310502
:1029E00009F481C08C819D81853091050CF465C00E
:1029F0002C813D812630310509F48BC08C819D816D
:102A00008730910509F49BC0B0C0A5E4B0E0E5E4CF
:102A1000F0E080818E7F8C93A5E4B0E0E5E4F0E007
:102A200080818D7F8C93A5E4B0E0E5E4F0E08081C7
:102A30008B7F8C939FC0A5E4B0E0E5E4F0E080815B
:102A400081608C93A5E4B0E0E5E4F0E080818D7FC7
:102A50008C93A5E4B0E0E5E4F0E080818B7F8C937B
:102A600089C0A5E4B0E0E5E4F0E080818E7F8C933E
:102A7000A5E4B0E0E5E4F0E0808182608C93A5E419
:102A8000B0E0E5E4F0E080818B7F8C9373C0A5E437
:102A9000B0E0E5E4F0E0808181608C93A5E4B0E0F3
:102AA000E5E4F0E0808182608C93A5E4B0E0E5E4A9
:102AB000F0E080818B7F8C935DC0A5E4B0E0E5E41D
:102AC000F0E080818E7F8C93A5E4B0E0E5E4F0E057
:102AD00080818D7F8C93A5E4B0E0E5E4F0E0808117
:102AE00084608C9347C0A5E4B0E0E5E4F0E0808129
:102AF00081608C93A5E4B0E0E5E4F0E080818D7F17
:102B00008C93A5E4B0E0E5E4F0E0808184608C93F0
:102B100031C0A5E4B0E0E5E4F0E080818E7F8C93E5
:102B2000A5E4B0E0E5E4F0E0808182608C93A5E468
:102B3000B0E0E5E4F0E0808184608C931BC0A5E404
:102B4000B0E0E5E4F0E0808181608C93A5E4B0E042
:102B5000E5E4F0E0808182608C93A5E4B0E0E5E4F8
:102B6000F0E0808184608C9305C081E0898302C09D
:102B700081E08983898129960FB6F894DEBF0FBE64
:102B8000CDBFCF91DF910895DF93CF9300D000D0D8
:102B90000F92CDB7DEB789837B836A838981282F23
:102BA00030E03D832C838C819D8181309105D1F073
:102BB0002C813D81223031052CF48C819D81009740
:102BC00061F022C02C813D812230310591F08C8151
:102BD0009D8183309105A1F017C0ECE5F0E08A817A
:102BE000808312C0EAE4F0E08A819B819183808334
:102BF0000BC0E8E4F0E08A819B819183808304C06C
:102C0000E3E4F0E08A8180830F900F900F900F90A3
:102C10000F90CF91DF910895DF93CF9300D000D034
:102C20000F92CDB7DEB789837B836A838981282F92
:102C300030E03D832C838C819D818130910571F042
:102C40002C813D812230310581F08C819D8100975E
:102C500081F4E2E5F0E08A8180830BC0ECE4F0E0EF
:102C60008A819B819183808304C0E4E4F0E08A81BF
:102C700080830F900F900F900F900F90CF91DF9166
:102C80000895DF93CF9300D00F92CDB7DEB78B833B
:102C90001A8219828B81882341F4E2E5F0E0808179
:102CA000882F90E09A83898314C08B81813039F416
:102CB000ECE4F0E0808191819A8389830AC08B8162
:102CC000823039F4E4E4F0E08081882F90E09A8348
:102CD000898389819A810F900F900F90CF91DF9116
:102CE0000895DF93CF9300D00F92CDB7DEB78983DD
:102CF0008981282F30E03B832A838A819B8183301E
:102D00009105E1F12A813B81243031057CF48A81EF
:102D10009B818130910511F12A813B81223031055F
:102D20002CF58A819B81009789F047C02A813B81DD
:102D30002530310599F18A819B818530910534F1E7
:102D40002A813B812630310589F137C0A9E5B0E001
:102D5000E9E5F0E0808181608C932FC0A9E5B0E0C7
:102D6000E9E5F0E0808182608C9327C0A9E5B0E0BE
:102D7000E9E5F0E0808184608C931FC0A9E5B0E0B4
:102D8000E9E5F0E0808180618C9317C0A9E5B0E0AF
:102D9000E9E5F0E0808188608C930FC0A9E5B0E0A0
:102DA000E9E5F0E0808180648C9307C0A9E5B0E09C
:102DB000E9E5F0E0808180688C930F900F900F9090
:102DC000CF91DF910895DF93CF9300D00F92CDB7CD
:102DD000DEB789838981282F30E03B832A838A816B
:102DE0009B8183309105E1F12A813B8124303105BB
:102DF0007CF48A819B818130910511F12A813B818C
:102E0000223031052CF58A819B81009789F047C0DB
:102E10002A813B812530310599F18A819B8185305A
:102E2000910534F12A813B812630310589F137C083
:102E3000A9E5B0E0E9E5F0E080818E7F8C932FC0BA
:102E4000A9E5B0E0E9E5F0E080818D7F8C9327C0B3
:102E5000A9E5B0E0E9E5F0E080818B7F8C931FC0AD
:102E6000A9E5B0E0E9E5F0E080818F7E8C9317C0A2
:102E7000A9E5B0E0E9E5F0E08081877F8C930FC0A1
:102E8000A9E5B0E0E9E5F0E080818F7B8C9307C095
:102E9000A9E5B0E0E9E5F0E080818F778C930F90B1
:102EA0000F900F90CF91DF910895DF93CF9300D0D3
:102EB00000D00F92CDB7DEB789837B836A83898187
:102EC000282F30E03D832C838C819D8183309105B8
:102ED000C9F12C813D81243031057CF48C819D81A8
:102EE0008130910509F12C813D81223031051CF59D
:102EF0008C819D81009789F040C02C813D812530D7
:102F0000310571F18C819D818530910514F12C8101
:102F10003D812630310559F130C08A819B819093E3
:102F200089018093880129C08A819B8190938B01BC
:102F300080938A0122C08A819B8190938D01809326
:102F40008C011BC08A819B8190938F0180938E019D
:102F500014C08A819B8190939101809390010DC050
:102F60008A819B81909393018093920106C08A810C
:102F70009B8190939501809394010F900F900F90F7
:102F80000F900F90CF91DF910895DF93CF9300D0F2
:102F9000CDB7DEB79A83898381E061E040E00E948B
:102FA000240881E062E040E00E94240881E063E0C0
:102FB00040E00E94240880E060E040E00E94240895
:102FC00080E061E040E00E94240880E062E040E0B0
:102FD0000E94240880E063E040E00E94240880E032
:102FE00064E040E00E94240880E065E040E00E9448
:102FF000240880E066E040E00E94240880E067E06A
:1030000040E00E94240889819A810E94EA1881E0A8
:103010000E94921B0F900F90CF91DF910895DF9344
:10302000CF930F92CDB7DEB7898389810E94A71A0B
:103030000F90CF91DF910895DF93CF9300D0CDB75C
:10304000DEB79A8389830AC0E981FA8180810E9470
:10305000A71A89819A8101969A838983E981FA81E5
:103060008081882389F70F900F90CF91DF91089589
:10307000EF92FF920F931F93DF93CF93CDB7DEB7FD
:1030800029970FB6F894DEBF0FBECDBF6E837F8346
:10309000888799871A821B821C821D8219828E81E1
:1030A0009F81A885B985BB2394F48DE20E94A71A5D
:1030B0008E819F81A885B985B095A09590958195C1
:1030C0009F4FAF4FBF4F8E839F83A887B98789815A
:1030D0008F5F89838A819B81AC81BD812AE030E04A
:1030E00040E050E0BC01CD010E94DA1E7B018C0162
:1030F0008E819F81A885B9852AE030E040E050E0CC
:10310000BC01CD010E941B1FDC01CB018E0D9F1D58
:10311000A01FB11F8A839B83AC83BD838E819F8157
:10312000A885B9852AE030E040E050E0BC01CD013F
:103130000E941B1FDA01C9018E839F83A887B9876C
:103140008E819F81A885B9850097A105B10509F0F9
:10315000BECF26C08A819B81AC81BD812AE030E050
:1031600040E050E0BC01CD010E94F91EDC01CB0122
:10317000805D0E94A71A8A819B81AC81BD812AE073
:1031800030E040E050E0BC01CD010E94F91EDA01C0
:10319000C9018A839B83AC83BD83898181508983E4
:1031A00089818823B9F629960FB6F894DEBF0FBE41
:1031B000CDBFCF91DF911F910F91FF90EF900895B8
:1031C000DF93CF93CDB7DEB781E00E94921BCF9102
:1031D000DF910895DF93CF9300D00F92CDB7DEB784
:1031E0009B838A8380E38983EA81FB8181818130AB
:1031F00019F4898188608983EA81FB818281813029
:1032000019F489818460898389810E94921B88E0F6
:103210008983EA81FB818081813019F4898184600E
:103220008983EA81FB818381823021F489818260F4
:1032300089830BC0EA81FB818381813031F48981EC
:103240008260898389818160898389810E94921B40
:103250000F900F900F90CF91DF910895DF93CF9350
:10326000CDB7DEB782E00E94921BCF91DF91089527
:10327000DF93CF930F92CDB7DEB7898306C08CE181
:103280000E94921B89818150898389818823B9F7A3
:103290000F90CF91DF910895DF93CF930F92CDB729
:1032A000DEB7898306C088E10E94921B8981815024
:1032B000898389818823B9F70F90CF91DF91089591
:1032C000DF93CF9300D00F92CDB7DEB78A836B83A5
:1032D0008A81882F90E0002496958795079496958B
:1032E00087950794982F802D982F8B81890F89833C
:1032F00089818068898389810E94921B0F900F9039
:103300000F90CF91DF910895DF93CF93CDB7DEB7C4
:1033100060970FB6F894DEBF0FBECDBFCE014796C3
:103320009E878D8705C1ED89FE898081853209F0F0
:10333000F5C08D899E8901969E8B8D8BED89FE89C6
:103340008081282F30E0388B2F878F8598898636AB
:10335000910509F483C02F853889273631055CF43F
:103360008F8598898336910519F12F853889243600
:10337000310561F0D8C08F8598898C36910521F18F
:103380002F85388925373105E1F1CDC02D853E8562
:10339000C90102969E878D87F90180819181AA27B4
:1033A00097FDA095BA2FBC01CD010E943818BBC073
:1033B0002D853E85C90102969E878D87F901808102
:1033C00091810E940F18AFC08D899E89FC013196B2
:1033D0008081843609F0A7C02D853E85C9010496F9
:1033E0009E878D87F90180819181A281B381BC0183
:1033F000CD010E9438188D899E8901969E8B8D8BF8
:1034000092C08D899E89FC01319680818C36A9F409
:103410002D853E85C90104969E878D87F90180819F
:103420009181A281B381BC01CD010E9438188D89A0
:103430009E8901969E8B8D8B76C02D853E85C90118
:1034400002969E878D87F90180819181CC01A0E051
:10345000B0E0BC01CD010E94381865C02D853E85C5
:10346000C90104969E878D87F90180819181A2818F
:10347000B38189879A87AB87BC8769857A858B8575
:103480009C850E94E304DC01CB019A838983990F18
:10349000880B982F8B838C838D838E838F83888773
:1034A00089819A81AB81BC81BC01CD010E94381811
:1034B0008EE20E940F1829813A814B815C816D81D7
:1034C0007E818F8198850E9475009B01AC01698582
:1034D0007A858B859C850E949D02DC01CB018987C2
:1034E0009A87AB87BC8769857A858B859C8520E028
:1034F00030E048EC52E40E94FB02DC01CB01BC014D
:10350000CD010E94E304DC01CB01AA2797FDA09521
:10351000BA2FBC01CD010E94381805C0ED89FE8983
:1035200080810E940F188D899E8901969E8B8D8BBC
:10353000ED89FE898081882309F0F5CE60960FB66B
:10354000F894DEBF0FBECDBFCF91DF910895DF931A
:10355000CF93CDB7DEB72F970FB6F894DEBF0FBE6F
:10356000CDBF8F8781E061E041E00E94520A81E097
:1035700062E040E00E94520A8F85982F917080E0AF
:1035800060E0492F0E94520A8F858695982F91708E
:1035900080E061E0492F0E94520A8F8586958695CA
:1035A000982F917080E062E0492F0E94520A8F8527
:1035B000869586958695982F917080E063E0492FD7
:1035C0000E94520A8F8582958F70982F917080E0AB
:1035D00064E0492F0E94520A8F85829586958770F4
:1035E000982F917080E065E0492F0E94520A8F85E4
:1035F0008295869586958370982F917080E066E01D
:10360000492F0E94520A8F85982F991F9927991F39
:1036100080E067E0492F0E94520A81E063E041E0C8
:103620000E94520A80E090E0A0E0B0E48B879C8783
:10363000AD87BE876B857C858D859E8520E030E0DB
:103640004AEF54E40E94FB02DC01CB018F83988790
:10365000A987BA876F81788589859A8520E030E0CF
:1036600040E85FE30E94550488232CF481E090E059
:103670009E838D833FC06F81788589859A8520E000
:103680003FEF4FE757E40E94F50318164CF56B85A2
:103690007C858D859E8520E030E040E251E40E94EB
:1036A000FB02DC01CB01BC01CD010E944900DC0121
:1036B000CB019E838D830FC088EC90E09C838B832D
:1036C0008B819C810197F1F79C838B838D819E81F7
:1036D00001979E838D838D819E81009769F714C029
:1036E0006F81788589859A850E944900DC01CB012C
:1036F0009E838D838D819E819A83898389819A811E
:103700000197F1F79A83898381E063E040E00E94AA
:10371000520A2F960FB6F894DEBF0FBECDBFCF91E1
:10372000DF910895DF93CF93CDB7DEB72F970FB614
:10373000F894DEBF0FBECDBF8F8781E061E040E02F
:103740000E94520A81E062E040E00E94520A8F85A6
:10375000982F917080E060E0492F0E94520A8F8577
:103760008695982F917080E061E0492F0E94520A5F
:103770008F8586958695982F917080E062E0492F1D
:103780000E94520A8F85869586958695982F91700E
:1037900080E063E0492F0E94520A8F8582958F70E6
:1037A000982F917080E064E0492F0E94520A8F8523
:1037B000829586958770982F917080E065E0492FFB
:1037C0000E94520A8F858295869586958370982FE0
:1037D000917080E066E0492F0E94520A8F85982FF1
:1037E000991F9927991F80E067E0492F0E94520A8C
:1037F00081E063E041E00E94520A80E090E0A0E0B6
:10380000B0E48B879C87AD87BE876B857C858D8573
:103810009E8520E030E04AEF54E40E94FB02DC0188
:10382000CB018F839887A987BA876F81788589852F
:103830009A8520E030E040E85FE30E945504882349
:103840002CF481E090E09E838D833FC06F8178856A
:1038500089859A8520E03FEF4FE757E40E94F50302
:1038600018164CF56B857C858D859E8520E030E0B3
:1038700040E251E40E94FB02DC01CB01BC01CD011E
:103880000E944900DC01CB019E838D830FC088EC30
:1038900090E09C838B838B819C810197F1F79C83C3
:1038A0008B838D819E8101979E838D838D819E81E7
:1038B000009769F714C06F81788589859A850E9481
:1038C0004900DC01CB019E838D838D819E819A838B
:1038D000898389819A810197F1F79A83898381E0AD
:1038E00063E040E00E94520A2F960FB6F894DEBFC4
:1038F0000FBECDBFCF91DF910895DF93CF93CDB7AA
:10390000DEB78091980190919901A0919A01B091B0
:103910009B010196A11DB11D80939801909399017F
:10392000A0939A01B0939B01CF91DF910895DF930B
:10393000CF93CDB7DEB72E970FB6F894DEBF0FBE8C
:10394000CDBF80919601813009F0E7C08091970149
:10395000882389F480E060E070E00E940C161092E9
:1039600098011092990110929A0110929B0181E0A6
:1039700080939701D2C080E00E944116CC01A0E064
:10398000B0E080939C0190939D01A0939E01B09321
:103990009F018091980190919901A0919A01B09115
:1039A0009B012227382F492F5A2F80919C019091FB
:1039B0009D01A0919E01B0919F01820F931FA41FB2
:1039C000B51F22ED31E040E050E0BC01CD010E9486
:1039D000F91EDA01C901BC01CD010E943705DC01E5
:1039E000CB018093A4019093A501A093A601B0936D
:1039F000A70180E06CE00E9460198091A401909181
:103A0000A501A091A601B091A701BC01CD010E9422
:103A1000E304DC01CB01BC01CD010E94381880E039
:103A200090E0A8ECB3E48B879C87AD87BE876B855D
:103A30007C858D859E8520E030E04AEF54E40E942D
:103A4000FB02DC01CB018F839887A987BA876F813E
:103A5000788589859A8520E030E040E85FE30E9420
:103A6000550488232CF481E090E09E838D833FC031
:103A70006F81788589859A8520E03FEF4FE757E48D
:103A80000E94F50318164CF56B857C858D859E8507
:103A900020E030E040E251E40E94FB02DC01CB0177
:103AA000BC01CD010E944900DC01CB019E838D83C6
:103AB0000FC088EC90E09C838B838B819C81019765
:103AC000F1F79C838B838D819E8101979E838D83EB
:103AD0008D819E81009769F714C06F8178858985F3
:103AE0009A850E944900DC01CB019E838D838D81E4
:103AF0009E819A83898389819A810197F1F79A83BC
:103B00008983109298011092990110929A01109253
:103B10009B0110929701109296012E960FB6F89481
:103B2000DEBF0FBECDBFCF91DF910895DF93CF935E
:103B3000CDB7DEB72E970FB6F894DEBF0FBECDBF60
:103B40008EE791E00E94C51784E791E00E9454102F
:103B500080E00E9471162DE73CE180E0B9010E94EF
:103B6000551781E00E94340E81E061E00E94310D22
:103B700027E93CE181E0B9010E94940E83E060E016
:103B800040E00E94240883E063E042E00E942408B1
:103B90000E94D30E80E690E00E941C180E94431EF3
:103BA00080E090E0A8E4B2E48B879C87AD87BE8775
:103BB0006B857C858D859E8520E030E04AEF54E45E
:103BC0000E94FB02DC01CB018F839887A987BA870B
:103BD0006F81788589859A8520E030E040E85FE351
:103BE0000E94550488232CF481E090E09E838D830D
:103BF0003FC06F81788589859A8520E03FEF4FE748
:103C000057E40E94F50318164CF56B857C858D856D
:103C10009E8520E030E040E251E40E94FB02DC019E
:103C2000CB01BC01CD010E944900DC01CB019E8388
:103C30008D830FC088EC90E09C838B838B819C816B
:103C40000197F1F79C838B838D819E8101979E83E1
:103C50008D838D819E81009769F7A0CF6F817885D4
:103C600089859A850E944900DC01CB019E838D8362
:103C70008D819E819A83898389819A810197F1F749
:103C80009A8389838BCFDF93CF93CDB7DEB72E97FF
:103C90000FB6F894DEBF0FBECDBF8091960188238A
:103CA00009F07FC083E060E041E00E94520A80E0BA
:103CB00090E0A0EAB1E48B879C87AD87BE876B85D7
:103CC0007C858D859E8520E030E04AEF54E40E949B
:103CD000FB02DC01CB018F839887A987BA876F81AC
:103CE000788589859A8520E030E040E85FE30E948E
:103CF000550488232CF481E090E09E838D833FC09F
:103D00006F81788589859A8520E03FEF4FE757E4FA
:103D10000E94F50318164CF56B857C858D859E8574
:103D200020E030E040E251E40E94FB02DC01CB01E4
:103D3000BC01CD010E944900DC01CB019E838D8333
:103D40000FC088EC90E09C838B838B819C810197D2
:103D5000F1F79C838B838D819E8101979E838D8358
:103D60008D819E81009769F714C06F817885898560
:103D70009A850E944900DC01CB019E838D838D8151
:103D80009E819A83898389819A810197F1F79A8329
:103D9000898383E060E040E00E94520A81E08093E2
:103DA00096012E960FB6F894DEBF0FBECDBFCF9111
:103DB000DF910895629FD001739FF001829FE00D13
:103DC000F11D649FE00DF11D929FF00D839FF00D9A
:103DD000749FF00D659FF00D9927729FB00DE11D46
:103DE000F91F639FB00DE11DF91FBD01CF01112423
:103DF0000895A1E21A2EAA1BBB1BFD010DC0AA1F2C
:103E0000BB1FEE1FFF1FA217B307E407F50720F043
:103E1000A21BB30BE40BF50B661F771F881F991FBE
:103E20001A9469F760957095809590959B01AC0107
:103E3000BD01CF01089597FB092E05260ED057FD31
:103E400004D0D7DF0AD0001C38F450954095309547
:103E500021953F4F4F4F5F4F0895F6F7909580950E
:103E6000709561957F4F8F4F9F4F08952F923F928E
:103E70004F925F926F927F928F929F92AF92BF927A
:103E8000CF92DF92EF92FF920F931F93CF93DF9326
:103E9000CDB7DEB7CA1BDB0B0FB6F894DEBF0FBE83
:103EA000CDBF09942A88398848885F846E847D84D0
:103EB0008C849B84AA84B984C884DF80EE80FD80D2
:103EC0000C811B81AA81B981CE0FD11D0FB6F89448
:0E3ED000DEBF0FBECDBFED010895F894FFCF09
:103EDE0044495354414E4345203D2000000000000C
:103EEE0000000000000102020303030304040404A3
:103EFE000404040405050505050505050505050568
:103F0E000505050506060606060606060606060647
:103F1E000606060606060606060606060606060633
:103F2E000606060607070707070707070707070717
:103F3E000707070707070707070707070707070703
:103F4E0007070707070707070707070707070707F3
:103F5E0007070707070707070707070707070707E3
:103F6E0007070707080808080808080808080808C7
:103F7E0008080808080808080808080808080808B3
:103F8E0008080808080808080808080808080808A3
:103F9E000808080808080808080808080808080893
:103FAE000808080808080808080808080808080883
:103FBE000808080808080808080808080808080873
:103FCE000808080808080808080808080808080863
:103FDE000808080808080808080808080808080853
:103FEE00080808080101000000000000000001019F
:023FFE000001C0
:00000001FF
